:107000000C942A380C9447380C9447380C94473821
:107010000C9447380C9447380C9447380C944738F4
:107020000C9447380C9447380C9447380C944738E4
:107030000C9447380C94493E0C94703E0C94973E47
:107040000C9447380C9447380C9447380C944738C4
:107050000C94473811241FBECFE5D8E0DEBFCDBF6A
:1070600011E0A0E6B0E0E8ECFAE802C005900D926D
:10707000A038B107D9F712E0A0E8B1E001C01D9235
:10708000A339B107E1F70E94BC440C9462450C940B
:107090000038EF92FF920F931F937B018C0120E049
:1070A00030E040E05FE40E94193B88238CF0C80187
:1070B000B70120E030E040E05FE40E94C1390E9467
:1070C000493B9B01AC01205030404040504806C035
:1070D000C801B7010E94493B9B01AC01B901CA013B
:1070E0001F910F91FF90EF900895A0E0B0E0EBE7C3
:1070F000F8E30C941245DC012B01FA019C919230CB
:1071000008F439C1EB018881823008F433C194302E
:1071100069F4843009F02FC111969C9111978981EF
:10712000981709F428C1A0E6B0E025C1843009F41D
:1071300021C18230A9F4923009F01DC19A01AD013C
:1071400088E0EA010990AE01E90109929E018150AF
:10715000C1F7E201898111969C918923818308C13D
:10716000923009F407C112962D903C901397EB01D1
:107170008A819B811496AD90BD90CD90DC9017973D
:10718000EC80FD800E811F819101281B390BB90114
:1071900037FF04C066277727621B730B60327105C7
:1071A0000CF061C0121613066CF537014801062E6B
:1071B00004C096948794779467940A94D2F721E058
:1071C00030E040E050E004C0220F331F441F551F41
:1071D0006A95D2F721503040404050402E213F2147
:1071E00040235123211531054105510521F021E0AE
:1071F00030E040E050E079018A01E628F7280829CC
:1072000019293CC0232BD1F1260E371E350146012A
:10721000062E04C096948794779467940A94D2F7C4
:1072200021E030E040E050E004C0220F331F441F53
:10723000551F6A95D2F721503040404050402A21D6
:107240003B214C215D21211531054105510521F0DE
:1072500021E030E040E050E059016A01A628B7285B
:10726000C828D9280BC0821593052CF01C01AA242C
:10727000BB24650103C0EE24FF24870111969C9175
:10728000D20111968C91981709F445C0992339F0D1
:10729000A80197012A193B094C095D0906C0A601FE
:1072A00095012E193F09400B510B57FD08C0118263
:1072B0003382228224833583468357831DC081E035
:1072C00081833382228288279927DC01821B930BDA
:1072D000A40BB50B84839583A683B7830DC0220FBF
:1072E000331F441F551F2483358346835783828170
:1072F00093810197938382832481358146815781CD
:10730000DA01C9010197A109B1098F5F9F4FAF4F02
:10731000BF4328F30BC0918333822282EA0CFB1C0B
:107320000C1D1D1DE482F5820683178383E0808394
:10733000248135814681578157FF1AC0C901AA2788
:1073400097FDA095BA2F81709070A070B07056957F
:10735000479537952795822B932BA42BB52B8483A8
:107360009583A683B78382819381019693838283D9
:10737000DF0101C0D201CD01CDB7DEB7E2E10C944F
:107380002E45A0E2B0E0E7ECF9E30C941E456983DA
:107390007A838B839C832D833E834F835887E9E0D8
:1073A000EE2EF12CEC0EFD1ECE010196B7010E94CF
:1073B0003A3D8E010F5E1F4FCE010596B8010E9427
:1073C0003A3D8A8991E089278A8BC701B801AE01CD
:1073D000475E5F4F0E9475380E94653CA096E6E0CC
:1073E0000C943A45A0E2B0E0E8EFF9E30C941E45B6
:1073F00069837A838B839C832D833E834F83588755
:10740000F9E0EF2EF12CEC0EFD1ECE010196B70136
:107410000E943A3D8E010F5E1F4FCE010596B801C6
:107420000E943A3DC701B801AE01475E5F4F0E941E
:1074300075380E94653CA096E6E00C943A45A0E2BF
:10744000B0E0E5E2FAE30C94124569837A838B831A
:107450009C832D833E834F835887CE010196BE01C6
:10746000675F7F4F0E943A3DCE010596BE016F5E79
:107470007F4F0E943A3D9985923088F08989823009
:10748000C8F0943019F4823051F404C0843029F4E7
:10749000923081F480E690E0C6C0923049F420E05A
:1074A0009A858A89981321E02A87CE010996BBC064
:1074B000823049F420E09A858A89981321E02A8B4A
:1074C000CE014196B0C02D843E844F8458886D888B
:1074D0007E888F88988CEE24FF248701AA24BB2401
:1074E000650140E050E060E070E0E0E0F0E0C10104
:1074F00081709070892BE9F0E60CF71C081D191DAE
:107500009A01AB012A0D3B1D4C1D5D1D80E090E0F2
:10751000A0E0B0E0E614F7040805190520F481E0C6
:1075200090E0A0E0B0E0BA01A901480F591F6A1F1E
:107530007B1FAA0CBB1CCC1CDD1C97FE08C081E085
:1075400090E0A0E0B0E0A82AB92ACA2ADB2A319646
:10755000E032F10549F0660C771C881C991C5694A2
:10756000479437942794C3CFFA85EA892B893C89BD
:107570008B859C85280F391F2E5F3F4F17C0CA018E
:1075800081709070892B61F016950795F794E794B8
:1075900080E090E0A0E0B0E8E82AF92A0A2B1B2B53
:1075A00076956795579547952F5F3F4F77FDE7CFC6
:1075B0000CC0440F551F661F771F17FD4160EE0C6E
:1075C000FF1C001F111F21503040403090E0590730
:1075D00090E0690790E4790760F32B8F3C8FDB0123
:1075E000CA018F779070A070B07080349105A105AA
:1075F000B10561F447FD0AC0E114F104010511056C
:1076000029F0405C5F4F6F4F7F4F40781A8EFE1716
:1076100011F081E08A8F4D8F5E8F6F8F78A383E0AA
:10762000898FCE0149960E94653CA096E2E10C94B8
:107630002E45A8E1B0E0EFE1FBE30C941E45698321
:107640007A838B839C832D833E834F83588789E085
:10765000E82EF12CEC0EFD1ECE010196B7010E9422
:107660003A3D8E010F5E1F4FCE010596B8010E9474
:107670003A3D8985823040F08989823028F0C701FF
:10768000B8010E94B23D01C08FEF6896E6E00C940D
:107690003A45ACE0B0E0EFE4FBE30C9422456983AB
:1076A0007A838B839C83CE010196BE016B5F7F4FF3
:1076B0000E943A3D8D81823061F1823050F18430F8
:1076C00021F48E81882351F12EC02F81388537FD1A
:1076D00020C06E812F3131051CF06623F9F023C0E4
:1076E0008EE190E0821B930B29853A854B855C8562
:1076F00004C056954795379527958A95D2F7662306
:10770000B1F050954095309521953F4F4F4F5F4FC9
:107710000EC020E030E040E050E009C02FEF3FEF26
:107720004FEF5FE704C020E030E040E050E8B901EF
:10773000CA012C96E2E00C943E45A8E0B0E0E3EAF2
:10774000FBE30C941A457B018C01611571058105E1
:10775000910519F482E0898360C083E089838EE11A
:10776000C82ED12CDC82CB82ED82FE820F8318875B
:10777000C801B7010E94163CFC013197F7FF3BC0DE
:10778000222733272E1B3F0B57016801022E04C00E
:10779000D694C794B794A7940A94D2F740E050E0E7
:1077A00060E070E081E090E0A0E0B0E004C0880F0D
:1077B000991FAA1FBB1F2A95D2F70197A109B109EA
:1077C0008E219F21A023B1230097A105B10521F0AF
:1077D00041E050E060E070E04A295B296C297D2996
:1077E0004D835E836F8378878EE190E08E1B9F0BC5
:1077F0009C838B8312C0309781F00E2E04C0EE0C58
:10780000FF1C001F111F0A94D2F7ED82FE820F8326
:107810001887CE1ADF0ADC82CB821A82CE0101964B
:107820000E94653C2896EAE00C943645EF92FF9260
:107830000F931F937B018C0180E0E81680E0F8062F
:1078400081E0080780E0180788F48FEFE816F1045C
:107850000105110531F028F088E090E0A0E0B0E0EB
:1078600017C080E090E0A0E0B0E012C080E0E81631
:1078700080E0F80680E0080781E0180728F088E13A
:1078800090E0A0E0B0E004C080E190E0A0E0B0E0D3
:1078900020E230E040E050E0281B390B4A0B5B0B44
:1078A00004C016950795F794E7948A95D2F7F701E7
:1078B000E859FF4F8081281B310941095109C9014D
:1078C0001F910F91FF90EF900895DF92EF92FF923A
:1078D0000F931F93FC01E480F58006811781D1800E
:1078E0008081823048F480E090E0A0E1B0E0E82AB6
:1078F000F92A0A2B1B2BA5C0843009F49FC08230C3
:1079000021F4EE24FF24870105C0E114F1040105F0
:10791000110519F4E0E0F0E096C0628173819FEFF9
:10792000623879070CF05BC022E83FEF261B370B6B
:107930002A3131052CF020E030E040E050E02AC050
:10794000B801A701022E04C0769567955795479513
:107950000A94D2F781E090E0A0E0B0E004C0880F84
:10796000991FAA1FBB1F2A95D2F70197A109B10938
:107970008E219F21A023B1230097A105B10521F0FD
:1079800081E090E0A0E0B0E09A01AB01282B392B18
:107990004A2B5B2BDA01C9018F779070A070B07011
:1079A00080349105A105B10539F427FF09C0205C99
:1079B0003F4F4F4F5F4F04C0215C3F4F4F4F5F4FD2
:1079C000E0E0F0E02030A0E03A07A0E04A07A0E4C1
:1079D0005A0710F0E1E0F0E079018A0127C0603831
:1079E000710564F5FB01E158FF4FD801C7018F779E
:1079F0009070A070B07080349105A105B10539F484
:107A0000E7FE0DC080E490E0A0E0B0E004C08FE3AA
:107A100090E0A0E0B0E0E80EF91E0A1F1B1F17FF60
:107A200005C016950795F794E794319687E016956B
:107A30000795F794E7948A95D1F705C0EE24FF24C3
:107A40008701EFEFF0E06E2F679566276795902F1F
:107A50009F77D794DD24D7948E2F8695492F462B78
:107A6000582F5D29B701CA011F910F91FF90EF9028
:107A7000DF900895FC01DB01408151812281622F5A
:107A80006F7770E0221F2227221F9381892F880F92
:107A9000822B282F30E0991F9927991F11969C93CC
:107AA000119721153105A9F541155105610571059C
:107AB00011F482E037C082E89FEF13969C938E9377
:107AC00012979A01AB0167E0220F331F441F551F25
:107AD0006A95D1F783E08C930DC0220F331F441FAA
:107AE000551F12968D919C911397019713969C9315
:107AF0008E931297203080E0380780E0480780E4BA
:107B0000580758F314962D933D934D935C93179714
:107B100008952F3F310579F441155105610571052F
:107B200019F484E08C93089564FF03C081E08C9382
:107B300012C01C9210C02F57304013963C932E93C6
:107B4000129783E08C9387E0440F551F661F771FC1
:107B50008A95D1F7706414964D935D936D937C93E1
:107B6000179708951F93DC01FB019C91923008F454
:107B700047C08081823008F443C0943051F411969C
:107B80001C91843099F58181682F70E0611B710927
:107B90003FC0843021F0923031F48230B9F18181DC
:107BA000882389F12DC011961C9111978230F1F034
:107BB00081811817D9F412962D913C9113978281E7
:107BC00093818217930794F028173907BCF0149615
:107BD0008D919D910D90BC91A02D24813581468180
:107BE0005781281739074A075B0718F4112341F01A
:107BF0000AC082179307A407B50740F4112319F0B0
:107C000061E070E005C06FEF7FEF02C060E070E000
:107C1000CB011F9108955D9BFECF8CB908955F9BAA
:107C2000FECF8CB1089520E004C05D9BFECFECB97F
:107C30002F5FFC01E20FF11DE081EE23B1F75D9BA8
:107C4000FECF1CB80895DC015F9BFECF8CB18C93F6
:107C500090E008C09F5F5F9BFECF8CB1FD01E90FF4
:107C6000F11D8083FD01E90FF11D8081882391F7CB
:107C700010820895909381018093800108959093DC
:107C800085018093840108959093830180938201FC
:107C900008951F920F920FB60F9211242F933F93C6
:107CA0004F935F936F937F938F939F93AF93BF9304
:107CB000EF93FF93E0918001F09181010995FF918D
:107CC000EF91BF91AF919F918F917F916F915F9154
:107CD0004F913F912F910F900FBE0F901F901895CD
:107CE0001F920F920FB60F9211242F933F934F9331
:107CF0005F936F937F938F939F93AF93BF93EF9314
:107D0000FF93E0918201F09183010995FF91EF913A
:107D1000BF91AF919F918F917F916F915F914F91A3
:107D20003F912F910F900FBE0F901F9018951F92AB
:107D30000F920FB60F9211242F933F934F935F939F
:107D40006F937F938F939F93AF93BF93EF93FF9323
:107D5000E0918401F09185010995FF91EF91BF9128
:107D6000AF919F918F917F916F915F914F913F91D3
:107D70002F910F900FBE0F901F9018959BB1991FD8
:107D80009927991F913021F580918701882331F43B
:107D90008CB1809392029093870119C090918601D3
:107DA0008CB1E92FF0E0ED56FE4F8083692F6F5FB5
:107DB0006093860180919202681749F410928601BF
:107DC0001092870183E991E070E00E945A435F9826
:107DD000089587E880BD579856985598549A539AB5
:107DE00083E389B980E060E040E00E94053F80E0E5
:107DF00061E041E00E94053F08958FB780688FBF22
:107E000008958FB78F778FBF08958130E9F0813063
:107E100030F0823071F1833009F054C03FC08AB332
:107E200021E030E0062E02C0220F331F0A94E2F751
:107E300020952823842F90E002C0880F991F6A950F
:107E4000E2F7282B2ABB089587B321E030E0062E05
:107E500002C0220F331F0A94E2F720952823842FB3
:107E600090E002C0880F991F6A95E2F7282B27BB84
:107E7000089584B321E030E0062E02C0220F331FA4
:107E80000A94E2F720952823842F90E002C0880FFF
:107E9000991F6A95E2F7282B24BB089581B321E04E
:107EA00030E0062E02C0220F331F0A94E2F720951D
:107EB0002823842F90E002C0880F991F6A95E2F76B
:107EC000282B21BB08958130E9F0813030F08230D9
:107ED00071F1833009F054C03FC08BB321E030E032
:107EE000062E02C0220F331F0A94E2F720952823A2
:107EF000842F90E002C0880F991F6A95E2F7282B23
:107F00002BBB089588B321E030E0062E02C0220F7B
:107F1000331F0A94E2F720952823842F90E002C0B3
:107F2000880F991F6A95E2F7282B28BB089585B31F
:107F300021E030E0062E02C0220F331F0A94E2F740
:107F400020952823842F90E002C0880F991F6A95FE
:107F5000E2F7282B25BB089582B321E030E0062EFE
:107F600002C0220F331F0A94E2F720952823842FA2
:107F700090E002C0880F991F6A95E2F7282B22BB78
:107F80000895813049F0813028F0823039F0833013
:107F9000B1F40DC089B303C086B301C083B390E0D0
:107FA00002C0959587956A95E2F78170089580B330
:107FB00090E002C0959587956A95E2F781700895E3
:107FC000813049F0813028F0823039F0833041F43B
:107FD00006C06ABB089567BB089564BB089561BB82
:107FE0000895813049F0813028F0823039F08330B3
:107FF00041F406C06BBB089568BB089565BB089546
:1080000062BB0895813091F0813028F08230C9F050
:10801000833061F521C02BB381E090E002C0880F6E
:10802000991F6A95E2F728272BBB089528B381E0B2
:1080300090E002C0880F991F6A95E2F7282728BBB5
:10804000089525B381E090E002C0880F991F6A95DA
:10805000E2F7282725BB089522B381E090E002C013
:10806000880F991F6A95E2F7282722BB089564308C
:1080700071058105910509F442C0653071058105DE
:108080009105A8F4613071058105910591F1613088
:1080900071058105910558F16230710581059105E1
:1080A00051F16330710581059105A1F526C0673056
:1080B00071058105910549F16830710581059105CA
:1080C00058F46530710581059105D9F06630710568
:1080D00081059105F9F417C0683071058105910596
:1080E000B1F06930710581059105A1F412C080E3FA
:1080F000089581E3089582E3089583E3089584E376
:10810000089585E3089586E3089587E3089588E355
:10811000089589E3089508951F93182F80E060E083
:1081200040E00E94633F80E061E040E00E94633FE6
:1081300080E062E041E00E94633F412F4295417040
:1081400081E064E00E94633F412F42954695417073
:1081500081E065E00E94633F412F42954695469538
:10816000417081E066E00E94633F412F441F442735
:10817000441F81E067E00E94633F80E062E040E0EE
:108180000E94633F80E062E041E00E94633F412F34
:10819000417081E064E00E94633F412F4695417049
:1081A00081E065E00E94633F16951695412F41706E
:1081B00081E066E00E94633F1695117081E067E000
:1081C000412F0E94633F80E062E040E00E94633FF5
:1081D0001F91089588E00E948C4008958CE00E94D1
:1081E0008C400895882319F0813041F404C088E15F
:1081F0000E948C4008958CE10E948C40089582E09A
:108200000E948C400895882319F0813051F405C0F4
:10821000862F80580E948C400895862F80540E949B
:108220008C40089581E00E948C4082E391E00197A8
:10823000F1F708951F93182F80E062E041E00E945B
:10824000633F80E060E041E00E94633F80E061E0E6
:1082500040E00E94633F412F4295417081E064E01D
:108260000E94633F412F42954695417081E065E051
:108270000E94633F412F429546954695417081E0AB
:1082800066E00E94633F412F441F4427441F81E062
:1082900067E00E94633F80E062E040E00E94633F4D
:1082A00080E062E041E00E94633F412F417081E045
:1082B00064E00E94633F412F4695417081E065E094
:1082C0000E94633F16951695412F417081E066E04C
:1082D0000E94633F1695117081E067E0412F0E9474
:1082E000633F80E062E040E00E94633F82E08A9565
:1082F000F1F71F9108950F931F93CF93DF938C0194
:10830000862F880F880F880F805C0E948C408CE03D
:108310008A95F1F7C0E0D0E0F801EC0FFD1F8081F5
:108320000E941A412196C830D105B1F7DF91CF9153
:108330001F910F9108950F931F93162F042F8130D3
:1083400081F0813018F0823019F516C088E691E08E
:1083500060E00E947B41812F602F0E94034180E0FA
:1083600015C080E791E061E00E947B41812F602F82
:108370000E94034181E00AC088E791E062E00E9428
:108380007B41812F602F0E94034182E00E941A41AD
:108390001F910F910895AF92BF92DF92EF92FF92DB
:1083A0000F931F93DF93CF93CDB7DEB72A970FB606
:1083B000F894DEBF0FBECDBF7B018C01DD245E01D2
:1083C0000894A11CB11C1BC0C801B7012AE030E011
:1083D00040E050E00E94F0440E943740F501ED0D6E
:1083E000F11D8083C801B7012AE030E040E050E091
:1083F0000E94F044C901DA017C018D01D394E1149B
:10840000F1040105110501F707C0FE01ED0DF11D95
:1084100080810E941A41DA94DD20B9F72A960FB6BE
:10842000F894DEBF0FBECDBFCF91DF911F910F91AA
:10843000FF90EF90DF90BF90AF9008950E941A4197
:1084400008951F93CF93DF93EC0110E003C00E94C7
:108450001A411F5FFE01E10FF11D80818823B9F7EA
:10846000DF91CF911F9108953F924F925F926F924B
:108470007F928F929F92AF92BF92CF92DF92EF92B4
:10848000FF920F931F93DF93CF93CDB7DEB72A9759
:108490000FB6F894DEBF0FBECDBF2B013C018E019D
:1084A0000F5F1F4F8AE0F80111928A95E9F7C30127
:1084B000B2010E9449384B015C016B017C0180E0F4
:1084C0001FC0C701B6012AE030E040E050E00E9442
:1084D000F0440E94374021E030E02C0F3D1F020F96
:1084E000131FF8018083C701B6012AE030E040E0A5
:1084F00050E00E94F044C901DA016C017D01832D36
:10850000082F10E0382E3394C114D104E104F10493
:10851000C1F621E030E02C0F3D1F020F131F8EE249
:10852000F8018083C501B4010E949D3B9B01AC0111
:10853000C301B2010E94C13920E030E040E251E4C1
:108540000E941F3A5B016C010E9449387B018C013B
:108550004E010894811C911C25C0C801B7012AE076
:1085600030E040E050E00E94F0440E943740F401C7
:10857000E30DF11D8083C801B7010E949D3B9B0163
:10858000AC01C601B5010E94C13920E030E040E2F3
:1085900051E40E941F3A5B016C010E9449387B0143
:1085A0008C013394E114F10401051105B1F6C40105
:1085B0000E9421422A960FB6F894DEBF0FBECDBFAF
:1085C000CF91DF911F910F91FF90EF90DF90CF90AF
:1085D000BF90AF909F908F907F906F905F904F90E3
:1085E0003F9008951F9380E797E10197F1F780E0AE
:1085F00062E041E00E94053F80E061E041E00E94CE
:10860000053F80E060E041E00E94053F81E064E0DA
:1086100041E00E94053F81E065E041E00E94053FA6
:1086200081E066E041E00E94053F81E067E041E0D3
:108630000E94053F80E060E040E00E94633F80E0F0
:1086400061E040E00E94633F80E062E041E00E9420
:10865000633F81E064E040E00E94633F81E065E0C9
:1086600041E00E94633F81E066E040E00E94633F9A
:1086700081E067E040E00E94633F80E062E040E02C
:108680000E94633F88E20E948C401AE0812F8A9505
:10869000F1F78CE00E948C401A95F1F781E00E947E
:1086A0008C4082E391E00197F1F786E00E948C40D4
:1086B0001F91089521E020938801FC01819180930E
:1086C0008E01F0939101E093900160938F010895E2
:1086D00080E180938E0180E50E940B3E81E08093D3
:1086E00092010895FF920F931F93CF93DF938C0114
:1086F000EB01FFB60E94013FB8017695762F662701
:108700007795679507B600FCFDCFE199FECF83E032
:10871000FB0180935700E89540E050E0A1E098818C
:108720008981229607B600FCFDCFE199FECFFA01C0
:10873000E60FF71F382F20E08901090F111D0801EE
:10874000A0935700E89511244E5F5F4F40385105C4
:1087500031F707B600FCFDCFE199FECF85E0FB01C4
:1087600080935700E89507B600FCFDCFE199FECF56
:1087700081E180935700E895FFBEDF91CF911F9173
:108780000F91FF90089580918801882309F4E7C034
:1087900080918E01843331F1853330F4803159F08A
:1087A000813309F0C5C081C0863309F43EC08733E8
:1087B00009F0BEC06BC0E0919001F0919101808101
:1087C000833009F0B5C080918F01823009F0B0C0CC
:1087D00080919201882309F0ABC080E50E940B3E96
:1087E00081E020C080919201813009F0A1C0809188
:1087F0008F01833009F09CC0E0919001F0919101CC
:10880000218130E0908180E0282B392B30938D013D
:1088100020938C012050384308F08AC084E70E94DE
:108820000B3E82E08093920188C080919201823059
:1088300009F07EC080918F01813809F079C0609184
:108840009001709191018091890190E00E947243A2
:1088500080918E01805C0E940B3E809189018F5F28
:108860008093890180918A0190918B0180589F4F5C
:1088700090938B0180938A0120918C0130918D011E
:108880008217930709F059C083E0CCCF8091920101
:10889000833009F04DC080918F01813009F048C0CC
:1088A00087E70E940B3E84E0BDCF80919201843027
:1088B00009F038C080918F01833009F033C0E09116
:1088C0009001F0919101A081218160918C017091C2
:1088D0008D014FEF5FEFE0E0F0E019C08491482791
:1088E000842F82958427082E869586958025082ECC
:1088F000869580258770042E452F86950794879549
:10890000502D482706948795502548273196E6171D
:10891000F70720F330E09A2F80E0282B392B24171B
:10892000350771F08FE70E940B3E1092920105C04F
:10893000109292018FE70E940B3E109288010895D9
:1089400081E70E940B3E80E090E061E00E9451458B
:1089500080E29EE40197F1F70C940000E6CF0895C1
:10896000882329F481E08BBF8BB78D7F03C081E022
:108970008BBF82E08BBF08950F931F9380E090E040
:108980000E944945082F81E090E00E94494510E08F
:10899000813009F411E0013011F41123D1F080E0AD
:1089A00067E041E00E94053F80E067E041E00E940F
:1089B000633F0E94E93E112339F00E94684381E041
:1089C00090E060E00E9451450E94BE3E0E94C34379
:1089D000FBCF0C94000081E090E01F910F9108956F
:1089E000A1E21A2EAA1BBB1BFD010DC0AA1FBB1FB3
:1089F000EE1FFF1FA217B307E407F50720F0A21B25
:108A0000B30BE40BF50B661F771F881F991F1A9491
:108A100069F760957095809590959B01AC01BD01BB
:108A2000CF0108952F923F924F925F926F927F9263
:108A30008F929F92AF92BF92CF92DF92EF92FF926E
:108A40000F931F93CF93DF93CDB7DEB7CA1BDB0B1A
:108A50000FB6F894DEBF0FBECDBF09942A883988BF
:108A600048885F846E847D848C849B84AA84B984C6
:108A7000C884DF80EE80FD800C811B81AA81B981D2
:108A8000CE0FD11D0FB6F894DEBF0FBECDBFED01E6
:108A90000895E199FECF9FBB8EBBE09A99278DB3D5
:108AA0000895262FE199FECF9FBB8EBBE09A0197D8
:108AB0000DB2021631F02DBB0FB6F894E29AE19A8E
:088AC0000FBE0895F894FFCFEA
:108AC800000000000000000000010202030303038D
:108AD8000404040404040404050505050505050546
:108AE8000505050505050505060606060606060626
:108AF800060606060606060606060606060606060E
:108B080006060606060606060707070707070707F5
:108B180007070707070707070707070707070707DD
:108B280007070707070707070707070707070707CD
:108B380007070707070707070707070707070707BD
:108B480007070707070707070808080808080808A5
:108B5800080808080808080808080808080808088D
:108B6800080808080808080808080808080808087D
:108B7800080808080808080808080808080808086D
:108B8800080808080808080808080808080808085D
:108B9800080808080808080808080808080808084D
:108BA800080808080808080808080808080808083D
:108BB800080808080808080808080808080808082D
:108BC8000808080808080808040E0E0E1F0004000C
:108BD80000000A15110A04000E0E04041F040A0AF4
:040000030000700089
:00000001FF
